{
  "contractName": "ToDo",
  "abi": [
    {
      "constant": true,
      "inputs": [
        {
          "name": "",
          "type": "uint256"
        }
      ],
      "name": "tasks",
      "outputs": [
        {
          "name": "desc",
          "type": "string"
        },
        {
          "name": "status",
          "type": "uint8"
        }
      ],
      "payable": false,
      "stateMutability": "view",
      "type": "function",
      "signature": "0x8d977672"
    },
    {
      "inputs": [],
      "payable": false,
      "stateMutability": "nonpayable",
      "type": "constructor",
      "signature": "constructor"
    },
    {
      "constant": false,
      "inputs": [
        {
          "name": "_desc",
          "type": "string"
        }
      ],
      "name": "addTask",
      "outputs": [],
      "payable": false,
      "stateMutability": "nonpayable",
      "type": "function",
      "signature": "0x67238562"
    },
    {
      "constant": false,
      "inputs": [
        {
          "name": "id",
          "type": "uint256"
        }
      ],
      "name": "markAsFinished",
      "outputs": [],
      "payable": false,
      "stateMutability": "nonpayable",
      "type": "function",
      "signature": "0xb6a74cc9"
    },
    {
      "constant": true,
      "inputs": [],
      "name": "getAllTasks",
      "outputs": [
        {
          "components": [
            {
              "name": "desc",
              "type": "string"
            },
            {
              "name": "status",
              "type": "uint8"
            }
          ],
          "name": "",
          "type": "tuple[]"
        }
      ],
      "payable": false,
      "stateMutability": "view",
      "type": "function",
      "signature": "0x779900b4"
    },
    {
      "constant": true,
      "inputs": [
        {
          "name": "id",
          "type": "uint256"
        }
      ],
      "name": "getTask",
      "outputs": [
        {
          "name": "",
          "type": "string"
        },
        {
          "name": "",
          "type": "uint8"
        }
      ],
      "payable": false,
      "stateMutability": "view",
      "type": "function",
      "signature": "0x1d65e77e"
    }
  ],
  "bytecode": "0x608060405234801561001057600080fd5b50336000806101000a81548173ffffffffffffffffffffffffffffffffffffffff021916908373ffffffffffffffffffffffffffffffffffffffff160217905550610c1c806100606000396000f3fe60806040526004361061006d576000357c0100000000000000000000000000000000000000000000000000000000900463ffffffff1680631d65e77e1461007257806367238562146100b0578063779900b4146100d95780638d97767214610104578063b6a74cc914610142575b600080fd5b34801561007e57600080fd5b506100996004803603610094919081019061084a565b61016b565b6040516100a7929190610a29565b60405180910390f35b3480156100bc57600080fd5b506100d760048036036100d29190810190610809565b6102ab565b005b3480156100e557600080fd5b506100ee6103d6565b6040516100fb9190610a07565b60405180910390f35b34801561011057600080fd5b5061012b6004803603610126919081019061084a565b610504565b604051610139929190610a59565b60405180910390f35b34801561014e57600080fd5b506101696004803603610164919081019061084a565b6105dc565b005b60606000600180549050831015156101b8576040517f08c379a00000000000000000000000000000000000000000000000000000000081526004016101af90610a89565b60405180910390fd5b6001838154811015156101c757fe5b90600052602060002090600202016000016001848154811015156101e757fe5b906000526020600020906002020160010160009054906101000a900460ff16818054600181600116156101000203166002900480601f01602080910402602001604051908101604052809291908181526020018280546001816001161561010002031660029004801561029b5780601f106102705761010080835404028352916020019161029b565b820191906000526020600020905b81548152906001019060200180831161027e57829003601f168201915b5050505050915091509150915091565b6000809054906101000a900473ffffffffffffffffffffffffffffffffffffffff1673ffffffffffffffffffffffffffffffffffffffff163373ffffffffffffffffffffffffffffffffffffffff1614151561033c576040517f08c379a000000000000000000000000000000000000000000000000000000000815260040161033390610aa9565b60405180910390fd5b600160408051908101604052808381526020016000600181111561035c57fe5b8152509080600181540180825580915050906001820390600052602060002090600202016000909192909190915060008201518160000190805190602001906103a69291906106fa565b5060208201518160010160006101000a81548160ff021916908360018111156103cb57fe5b021790555050505050565b60606001805480602002602001604051908101604052809291908181526020016000905b828210156104fb5783829060005260206000209060020201604080519081016040529081600082018054600181600116156101000203166002900480601f0160208091040260200160405190810160405280929190818152602001828054600181600116156101000203166002900480156104b65780601f1061048b576101008083540402835291602001916104b6565b820191906000526020600020905b81548152906001019060200180831161049957829003601f168201915b505050505081526020016001820160009054906101000a900460ff1660018111156104dd57fe5b60018111156104e857fe5b81525050815260200190600101906103fa565b50505050905090565b60018181548110151561051357fe5b9060005260206000209060020201600091509050806000018054600181600116156101000203166002900480601f0160208091040260200160405190810160405280929190818152602001828054600181600116156101000203166002900480156105bf5780601f10610594576101008083540402835291602001916105bf565b820191906000526020600020905b8154815290600101906020018083116105a257829003601f168201915b5050505050908060010160009054906101000a900460ff16905082565b6000809054906101000a900473ffffffffffffffffffffffffffffffffffffffff1673ffffffffffffffffffffffffffffffffffffffff163373ffffffffffffffffffffffffffffffffffffffff1614151561066d576040517f08c379a000000000000000000000000000000000000000000000000000000000815260040161066490610aa9565b60405180910390fd5b600180549050811015156106b6576040517f08c379a00000000000000000000000000000000000000000000000000000000081526004016106ad90610a89565b60405180910390fd5b600180828154811015156106c657fe5b906000526020600020906002020160010160006101000a81548160ff021916908360018111156106f257fe5b021790555050565b828054600181600116156101000203166002900490600052602060002090601f016020900481019282601f1061073b57805160ff1916838001178555610769565b82800160010185558215610769579182015b8281111561076857825182559160200191906001019061074d565b5b509050610776919061077a565b5090565b61079c91905b80821115610798576000816000905550600101610780565b5090565b90565b600082601f83011215156107b257600080fd5b81356107c56107c082610af6565b610ac9565b915080825260208301602083018583830111156107e157600080fd5b6107ec838284610b8f565b50505092915050565b60006108018235610b73565b905092915050565b60006020828403121561081b57600080fd5b600082013567ffffffffffffffff81111561083557600080fd5b6108418482850161079f565b91505092915050565b60006020828403121561085c57600080fd5b600061086a848285016107f5565b91505092915050565b600061087e82610b2f565b8084526020840193508360208202850161089785610b22565b60005b848110156108d05783830388526108b28383516109ca565b92506108bd82610b50565b915060208801975060018101905061089a565b508196508694505050505092915050565b6108ea81610b7d565b82525050565b60006108fb82610b45565b80845261090f816020860160208601610b9e565b61091881610bd1565b602085010191505092915050565b600061093182610b3a565b808452610945816020860160208601610b9e565b61094e81610bd1565b602085010191505092915050565b6000601682527f4e6f207461736b20686173206265656e206164646564000000000000000000006020830152604082019050919050565b6000600982527f4e6f74206f776e657200000000000000000000000000000000000000000000006020830152604082019050919050565b600060408301600083015184820360008601526109e78282610926565b91505060208301516109fc60208601826108e1565b508091505092915050565b60006020820190508181036000830152610a218184610873565b905092915050565b60006040820190508181036000830152610a4381856108f0565b9050610a5260208301846108e1565b9392505050565b60006040820190508181036000830152610a738185610926565b9050610a8260208301846108e1565b9392505050565b60006020820190508181036000830152610aa28161095c565b9050919050565b60006020820190508181036000830152610ac281610993565b9050919050565b6000604051905081810181811067ffffffffffffffff82111715610aec57600080fd5b8060405250919050565b600067ffffffffffffffff821115610b0d57600080fd5b601f19601f8301169050602081019050919050565b6000602082019050919050565b600081519050919050565b600081519050919050565b600081519050919050565b6000602082019050919050565b6000600282101515610b6b57fe5b819050919050565b6000819050919050565b6000610b8882610b5d565b9050919050565b82818337600083830152505050565b60005b83811015610bbc578082015181840152602081019050610ba1565b83811115610bcb576000848401525b50505050565b6000601f19601f830116905091905056fea265627a7a723058201a0a77da8401fb0c713e5f9746294a494a2e0674d71fac585091ae407a8a22a56c6578706572696d656e74616cf50037",
  "source": "//SPDX-License-Identifier: MIT\r\npragma solidity ^0.5.0;\r\n\r\npragma experimental ABIEncoderV2; \r\n\r\ncontract ToDo {\r\n    enum TaskStatus {Pending, Finished}\r\n    address owner;\r\n    struct Task {\r\n        string desc;\r\n        TaskStatus status;\r\n    }\r\n\r\n    Task[] public tasks;\r\n\r\n    constructor() public {\r\n        owner = msg.sender;\r\n    }\r\n\r\n    modifier onlyOwner {\r\n        require(msg.sender == owner, \"Not owner\");\r\n        _;\r\n    }\r\n\r\n    function addTask(string memory _desc) public onlyOwner {\r\n        tasks.push(Task(_desc, TaskStatus.Pending));\r\n    }\r\n\r\n    function markAsFinished(uint256 id) public onlyOwner {\r\n        require(id < tasks.length, \"No task has been added\");\r\n        tasks[id].status= TaskStatus.Finished;\r\n    }\r\n\r\n    function getAllTasks() public view returns (Task[] memory) {\r\n        return tasks;\r\n    }\r\n\r\n    function getTask(uint256 id) public view returns (string memory, TaskStatus) {\r\n        require(id < tasks.length, \"No task has been added\");\r\n        return(tasks[id].desc, tasks[id].status);\r\n    }\r\n}",
  "sourcePath": "C:/Users/vivek/Documents/newtest/contracts/smartcontract.sol",
  "compiler": {
    "name": "solc",
    "version": "0.5.0+commit.1d4f565a.Emscripten.clang"
  },
  "schemaVersion": "3.0.1",
  "updatedAt": "2024-01-31T03:37:49.854Z",
  "devdoc": {
    "methods": {}
  },
  "userdoc": {
    "methods": {}
  }
}